S010000052544F5344656D6F2E7372656347
S21440000088EE002001034000FD024000FD02400053
S214400010FD024000FD024000FD02400000000000DE
S21440002000000000000000000000000081084000C2
S214400030FD02400000000000210940006509400024
S214400040FD024000FD024000FD024000FD0240006F
S214400050FD024000FD024000FD024000000000009E
S214400060FD024000FD02400000000000FD0240008E
S214400070FD02400000000000FD024000FD0240007E
S2144000800000000000000000FD024000FD024000AD
S214400090FD024000FD024000FD024000FD0240001F
S2144000A0FD024000FD02400000000000000000008D
S2144000B000000000FD024000FD024000FD0240003E
S2144000C0FD024000FD024000FD02400010B5054C18
S2144000D0237833B9044B13B10448AFF300800123AF
S2144000E0237010BD40040020000000005450400023
S2144000F00C4B43B10C480D4910B5AFF300800C488B
S214400100036823B910BD0A48036833B97047094BE2
S214400110002BF7D0BDE810401847064B002BF5D013
S214400120184700BF00000000545040004404002020
S214400130545040000000000010B50B20054CA0476E
S2144001400C20A047044B4FF480521A61C3F8A020FD
S21440015010BD00BFA902400000120E4010B50E4868
S2144001600E4B98473E2100200D4B98470D4CA0471C
S2144001700028FCD00C4B98470C4A0D4B9A620D4C0D
S214400180A0470028FCD010200B4B98470B4B9847B5
S2144001900148024B984710BD000E2707BD0440009B
S2144001A0250240007902400089024000013F1320AA
S2144001B000040E4099024000C1014000AD034000DB
S2144001C0174A136B23F0700318431063936E13F0B3
S2144001D0080F0AD14FF4006311498A6E12F0080FD7
S2144001E003D1013BF9D1012070470D4A136B23F030
S2144001F0030343F002031363936E13F0080F0AD110
S2144002004FF4006306498A6E12F0080F05D1013B91
S214400210F9D101207047002070470020704700BF8A
S21440022000040E40C8B9114A136A090289B223F481
S2144002305C1323F0030343F45C1343F001030B43C6
S2144002401362936E13F0010FFBD0084A136A43F013
S2144002509B7343F480331362704704490B6A044A25
S2144002601A40044B13430B62704700BF00040E4015
S214400270FCFFC8FE02003701024B986E00F4803047
S214400280704700BF00040E404FF00052014B9A6288
S214400290704700BF00040E40024B986E00F002000C
S2144002A0704700BF00040E4022281ED81F280CD8D6
S2144002B0114B9A6901238340934318D0012303FAD4
S2144002C000F00D4B18610020704720380A4BD3F8D9
S2144002D008210123834093430BD0012303FA00F007
S2144002E0054BC3F8000100207047012070470020EE
S2144002F070470020704700BF00040E40FEE7000035
S21440030008B5214B214A9A4228D9214B1E4A9A4287
S2144003100CD2013B9B1A23F00303043313441B49BE
S21440032051F8040B42F8040B9A42F9D100BF194B1E
S214400330194A9A420AD2013B9B1A23F0030304331C
S2144003401344002142F8041B9A42FBD1134B144A33
S2144003509A60144B9847144B9847FEE70A4B0B4A53
S2144003609A42E3D20A4B0848181A1146043A024405
S2144003700028DBD0C1F1040152F8040943F8040D0B
S214400380CA42F9D1D2E700BF0000002054504000D6
S2144003904004002088BE00204004002000ED00E01D
S2144003A0000040002D3D40008D3C40003C4B1B6B08
S2144003B003F00303032B0ED8DFE803F0021C3838A3
S2144003C0384B5B6913F0800F14BF4FF400424FF474
S2144003D0FA42354B1A60324B1B6B03F07003702B9E
S2144003E055D02F4B1A6B3049C2F302120B68D340DC
S2144003F00B6070472A4B1B6A13F0807F03D02B4A52
S214400400294B1A60E7E72A4A274B1A60244B1B6A97
S21440041003F07003102B05D0202BDCD1234A224B4F
S2144004201A60D8E7234A204B1A60D4E71C4B1B6A55
S21440043013F0807F18D01D4A1B4B1A60184B1B6B5D
S21440044003F00303022B164A07BF916A926AD16AE9
S214400450D26A1548C1F30A41036801FB0333D2B29E
S214400460B3FBF2F30360B6E7114A0F4B1A600C4B2E
S2144004701B6A03F07003102B05D0202BDED10B4AED
S214400480094B1A60DAE70B4A074B1A60D6E7064A6A
S21440049013680949A1FB03135B081360704700BF4C
S2144004A000040E4010140E4000000020001BB70051
S2144004B000093D0000127A00ABAAAAAA124B984245
S2144004C011D9124B984213D9114B984214D9114B5B
S2144004D0984215D9104B984294BF4FF004220F4AC9
S2144004E00F4B1A6070474FF080620D4B1A60704792
S2144004F00C4A0B4B1A6070470B4A094B1A60704700
S2144005000A4A074B1A607047FF2C3101FF596202B6
S214400510FF869303FFB3C404FFE0F505000500041F
S214400520000A0E400001000400020004000300041C
S21440053010B4124B1A6882421AD35C681919884262
S21440054003D1416821445960184641684418A24284
S21440055012D10B4C2468A2420CD052680A44426026
S2144005601A6812680260984218BF186010BC70473C
S2144005701346DFE70260F6E70260F4E76CA400206B
S2144005805C0400202DE9F04104464C4B98474C4B08
S2144005901B68C3B14B4BD3F8008018EA040F7AD1DE
S2144005A0002C00F08780083414F0070F1CBF24F09E
S2144005B007040834002C6ED0434B1F68BC426AD8F0
S2144005C0424B1D6827E0424A12F0070F1ED0D11D4D
S2144005D021F0070102F520435B1A0A463B480260B9
S2144005E0002141601344083B23F00703344803606E
S2144005F059601960991A51601360364B1960324B36
S21440060019604FF000422F4B1A60C3E74FF4204367
S214400610E4E72B4615466A68944202D92A68002ABF
S214400620F7D1274A1268954235D01E682A681A6064
S2144006306B681B1B102B10D9281910F0070F08D019
S2144006404FF0A00383F31188BFF36F8FBFF34F8F34
S214400650FEE743606C60204B98476A68BF1A1A49A9
S2144006600F601C4909688F423CBF1A490F6048EA30
S21440067002026A6000232B6008361BD022463146B1
S2144006809420164B9847164B984716F0070F08D1FC
S2144006903046BDE8F081124B9847124B98470026EB
S2144006A0F6E74FF0A00383F31188BFF36F8FBFF3D5
S2144006B04F8FFEE70A4B9847EFE700BFF51940001B
S2144006C05C04002060A4002064A400206CA40020E9
S2144006D06004002068A40020310540003935400001
S2144006E08D1B4000053D4000002834D010B5044620
S2144006F050F8043C184A1268134208D14FF0A00341
S21440070083F31188BFF36F8FBFF34F8FFEE750F828
S214400710081C41B14FF0A00383F31188BFF36F8FDD
S214400720BFF34F8FFEE723EA020340F8043C0B4B2F
S214400730984754F8042C0A490B6813440B605242FD
S21440074021469620074B9847A4F10800064B984749
S214400750064B984710BD704760A40020F51940002E
S21440076064A4002039354000310540008D1B400010
S21440077000F1080343604FF0FF328260C3600361BC
S21440078000230360704700230361704743684B6053
S2144007909A688A609A685160996008610368013374
S2144007A00360704730B40D68B5F1FF3F02D000F1EA
S2144007B0080202E0026904E01A4653681C68A54233
S2144007C0FAD253684B6099608A605160086103684A
S2144007D00133036030BC70470369426881689160AA
S2144007E08268416851605A68904204BF82685A6085
S2144007F00022026118680138186070470B4B1B686E
S214400800B3F1FF3F08D04FF0A00383F31188BFF346
S2144008106F8FBFF34F8FFEE74FF0A00383F311882F
S214400820BFF36F8FBFF34F8FFEE700BF040000207B
S21440083006480068006880F3088862B661B6BFF371
S2144008404F8FBFF36F8F00DF00BF000008ED00E062
S2144008504FF0807340F8043C21F0010140F8081C3A
S214400860034B40F80C3C40F8202C4038704700BF03
S214400870FD074000000000000000000000000000EF
S214400880074B19680868B0E8F00F80F30988BFF393
S2144008906F8F4FF0000080F311884EF00D0E7047BA
S2144008A07CA400204FF0A00383F31188BFF36F8F22
S2144008B0BFF34F8F0A4A136801331360012B0DD1E3
S2144008C0084B1B6813F0FF0F08D04FF0A00383F3CC
S2144008D01188BFF36F8FBFF34F8FFEE7704700BF9F
S2144008E00400002004ED00E0094B1B6843B94FF0BC
S2144008F0A00383F31188BFF36F8FBFF34F8FFEE7DC
S214400900013B034A13600BB983F31188704700BF5D
S214400910040000200000000000000000000000006E
S214400920EFF30980BFF36F8F0D4B1A6820E9F00F85
S21440093010602DE908404FF0A00080F3118801F0C8
S2144009404BFA4FF0000080F31188BDE80840196864
S2144009500868B0E8F00F80F30988BFF36F8F7047E0
S2144009607CA4002008B54FF0A00383F31188BFF3A2
S2144009706F8FBFF34F8F054B984718B14FF080529B
S214400980034B1A60002383F3118808BD111A4000F8
S21440099004ED00E0064B1B68064AA2FB03239B09B6
S2144009A0013B054A13600722044B1A60704700BF9C
S2144009B000000020D34D621014E000E010E000E09C
S2144009C000B583B0224B1A78D2B20192FF221A7039
S2144009D01B78DBB28DF803309DF8033003F0A0039C
S2144009E01C4A137007221C4B1A609DF8033013F004
S2144009F0800F10D0062200E00A469DF803305B00C8
S214400A00DBB28DF803309DF80330511E13F0800F93
S214400A10F2D1114B1A60104A13681B0203F4E063CC
S214400A201360019BDBB20A4A13700C4B1A6842F4FF
S214400A3070021A601A6842F070421A60084B984773
S214400A400022084B1A60084B9847084B984700BF4F
S214400A5000E400E074A4002078A4002020ED00E02C
S214400A60950940000400002031084000FD07400082
S214400A70EFF305830F2B0FD9104A9B5CDBB2104A6D
S214400A8012789A4208D94FF0A00383F31188BFF337
S214400A906F8FBFF34F8FFEE70A4B1B6803F4E0638C
S214400AA0094A1268934208D94FF0A00383F311888D
S214400AB0BFF36F8FBFF34F8FFEE77047F0E300E062
S214400AC074A400200CED00E078A4002070B5044625
S214400AD01646856B026C52B90368002B2AD14068D3
S214400AE0184B9847002363600135A56370BD6EB907
S214400AF08068154B9847A368226C1344A3606268CD
S214400B00934219D32368A3600020EDE7C0680E4BDC
S214400B109847236C5B42E2681A44E26021688A4246
S214400B2002D262681344E360022E07D145B1013D0C
S214400B300020D9E70020D7E70020D5E70020D3E7FC
S214400B400020D1E7052240007D3D40002DE9F04FD2
S214400B5083B00190846C64B1A26BE36B9A4211D36C
S214400B604FF0A00383F31188BFF36F8FBFF34F8F0F
S214400B70FEE74FF0A00383F31188BFF36F8FBFF3F8
S214400B804F8FFEE7A26B934204D80026304603B050
S214400B90BDE8F08F8A4694F845506DB22046214F06
S214400BA0B847DFF8949019F800602036F6B2204631
S214400BB0B84719F800B02046DFF88080C0470246A4
S214400BC059463046184B98472046B84719F80060B3
S214400BD02046C04780462046B84719F80030022BCA
S214400BE01DBFA26B0132D2B20022414630460F4BA7
S214400BF09847524601A920460D4B98470646B5F100
S214400C00FF3F0AD1636A002BC0D004F12400094B91
S214400C109847002818BF0126B8E76B1C5BB284F8DB
S214400C204530B3E71928400015364000ED2F400008
S214400C30CD0A4000691F40000800002009284000F7
S214400C40026C72B110B50346C4681444C460406870
S214400C50844224BF1868D8600846D968014B984734
S214400C6010BD70477D3D40002DE9F0410546234BC1
S214400C70984795F8454064B2002C19DD204EDFF8C1
S214400C808C80204F08E06B6A93B105F12400B8478A
S214400C9060B9013C64B25CB1AB6C002BF3D0002170
S214400CA02846B0470028F4D0C047F2E7C047F0E7F0
S214400CB0FF2385F84530144B9847104B984795F8D6
S214400CC0444064B2002C12DD2B6983B105F1100755
S214400CD00C4EDFF8388004E0013C64B23CB12B692E
S214400CE02BB13846B0470028F6D0C047F4E7FF237C
S214400CF085F84430044B9847BDE8F081A50840008D
S214400D004D0B4000691F4000E9084000C9204000E4
S214400D1038B530B304460D461C4B98472268216CC4
S214400D20E36B03FB01F3D01860600020A063A26071
S214400D305B1A1344E360FF2384F8443084F845305C
S214400D40C5B92369EBB104F11000114B9847C0B107
S214400D504FF080520F4B1A60BFF34F8FBFF36F8F29
S214400D600FE04FF0A00383F31188BFF36F8FBFF3FC
S214400D704F8FFEE704F11000074DA84704F124000A
S214400D80A847064B9847012038BD00BFA50840003D
S214400D90691F400004ED00E071074000E90840008C
S214400DA040B94FF0A00383F31188BFF36F8FBFF3B2
S214400DB04F8FFEE72DE9F047064617460D4601FBE6
S214400DC000F05430234B9847044600283ED01DB1CF
S214400DD000F15403036000E02060E66325640121CF
S214400DE020461D4B984784F850704FF00009C4F8D1
S214400DF048902046194EB047194D285C194B9847E5
S214400E00E0642046B0472F5C2046DFF86880C04745
S214400E1001463846144B98472046B0472F5C183753
S214400E20FFB22046B04715F800A02046C04702460D
S214400E30514638460D4B98472046B0472D5C2046D5
S214400E40C0474A4601462846094B98472046BDE8D3
S214400E50F08700BF85054000110D4000192840006E
S214400E600800002085304000052E40001536400022
S214400E70ED2F4000092840002DE9F04F85B0019243
S214400E8098B10446D1B1022B24D01D460091974B11
S214400E90984758BB019B83B34FF0A00383F3118858
S214400EA0BFF36F8FBFF34F8FFEE74FF0A00383F380
S214400EB01188BFF36F8FBFF34F8FFEE7026C002A97
S214400EC0E1D04FF0A00383F31188BFF36F8FBFF3D9
S214400ED04F8FFEE7E26B012AD7D04FF0A00383F393
S214400EE01188BFF36F8FBFF34F8FFEE70026804F0A
S214400EF0DFF83CB2DFF810A27EE00026F7E7204697
S214400F00DFF81092C847DFF8108218F800602036E5
S214400F10F6B22046C84718F800A02046754FB84796
S214400F20024651463046744B98472046C84718F804
S214400F3000602046B84707462046C84718F80030A5
S214400F40022B1DBFA26B0132D2B200223946304678
S214400F506A4B98472A4600992046694B9847A36CA7
S214400F6093B129462046674B984738B14FF0805298
S214400F70654B1A60BFF34F8FBFF36F8F634B984735
S214400F80012005B0BDE8F08F636A73B104F1240018
S214400F905F4B98470028F1D04FF080525A4B1A606A
S214400FA0BFF34F8FBFF36F8FE8E70028E6D04FF0D0
S214400FB08052554B1A60BFF34F8FBFF36F8FDDE7FC
S214400FC0524B98472046534FB847534E355C4835AA
S214400FD0EDB22046B847365C2046464B9847024618
S214400FE031462846444B98470020CAE720464B4B9C
S214400FF098474B4B98470126B847A26BE36B9A42FB
S214401000FFF47DAF022D3FF47AAF019B002BD7D083
S2144010100EB902A8D8473D4B9847424B9847B84729
S21440102094F844305BB2B3F1FF3F04BF002384F82A
S214401030443094F845305BB2B3F1FF3F04BF002321
S21440104084F84530314B984701A902A8364B98475B
S214401050002832D1B847D4F83880E66B2B4B9847F7
S214401060B045C3D12046DFF8AC90C847DFF8A8802B
S21440107018F800607036F6B22046C84718F8008068
S21440108020461C4B98470246414630461A4B9847E6
S214401090019904F11000254B984720461F4B98476E
S2144010A01F4B98470028A6D14FF08053CAF800300F
S2144010B0BFF34F8FBFF36F8F9DE72046174B984780
S2144010C0174B98472046134FB847134E355C483564
S2144010D0EDB22046B847365C2046064B9847024657
S2144010E031462846044B984700204AE7ED2040000A
S2144010F0A50840000928400015364000ED2F400066
S214401100CD0A40004D0B400004ED00E0E9084000E9
S214401110691F40001928400008000020690C400064
S2144011208D1B4000F51940003D204000B91E400090
S2144011301120400000285FD02DE9F04F85B00446CE
S214401140002962D0022B6CD01D46019316460391AF
S214401150514B9847EFF3118B4FF0A00383F3118860
S214401160BFF36F8FBFF34F8FA26BE36B9A4201D3EF
S214401170022D73D194F845506DB22046DFF8309179
S214401180C847DFF8308118F800703037FFB2204685
S214401190C84718F8003002932046DFF81CA1D04715
S2144011A00246029938463D4B98472046C84718F8AD
S2144011B000702046D047A26B0132D2B20146384674
S2144011C0374B9847019A03992046364B9847B5F1D6
S2144011D0FF3F3DD1A36C002B2FD001992046324BC8
S2144011E0984700284ED0002E4ED0012030608BF31A
S2144011F0118805B0BDE8F08F4FF0A00383F3118847
S214401200BFF36F8FBFF34F8FFEE7006C002899D077
S2144012104FF0A00383F31188BFF36F8FBFF34F8F58
S214401220FEE7E06B01288FD04FF0A00383F31188D0
S214401230BFF36F8FBFF34F8FFEE7636A33B304F19C
S21440124024001A4B984718B326B301203060CEE7E7
S2144012506B1C5BB284F845300120C8E72046144F2B
S214401260B847144E355C5835EDB22046B847365C24
S2144012702046114B9847024631462846074B98472A
S2144012800020B4E70120B2E70120B0E70120AEE736
S2144012900120ACE70120AAE7710A4000153640005D
S2144012A0ED2F4000CD0A40004D0B4000691F400026
S2144012B01928400008000020092840002DE9F04F7A
S2144012C087B0039288B10446C1B102930191974B0F
S2144012D09847F8B9039B23B34FF0A00383F31188D4
S2144012E0BFF36F8FBFF34F8FFEE74FF0A00383F33C
S2144012F01188BFF36F8FBFF34F8FFEE7026C002A53
S214401300E3D04FF0A00383F31188BFF36F8FBFF392
S2144013104F8FFEE70027864DDFF864A2DFF8349251
S2144013209EE00027F7E7E76801992046814B9847FB
S214401330029B002B48D12046DFF82492C8477E4FB8
S2144013403D5C2835EDB22046C84717F800A0204639
S214401350DFF80882C047024651462846774B9847F2
S2144013602046C8473D5C2046C04780462046C84782
S2144013703B5C022B24D1724B9847724B98470246EF
S21440138041462846704B9847013EA663236813B9EA
S2144013906E4B98476060236963B104F110006C4B54
S2144013A0984738B14FF080526A4B1A60BFF34F8F60
S2144013B0BFF36F8F684B9847012007B0BDE8F08FAA
S2144013C0A26B013AD2B2DBE72046DFF89481C047F1
S2144013D0594E355C7835EDB22046C047365C2046DF
S2144013E05E4B9847024631462846544B9847E7603E
S2144013F0636A002BDED004F12400554B9847002842
S214401400D8D04FF08052534B1A60BFF34F8FBFF384
S2144014106F8FCFE7504B98472046514FB847464EC0
S214401420355C5035EDB22046B847365C20464B4BCF
S2144014309847024631462846404B98470020BCE72E
S21440144004A8D04716E0A8476068464B9847424BEA
S214401450984756E02046444B9847444B98470127C8
S214401460A847A66B002E7FF45EAF039B002BD1D01F
S214401470002FE5D0384B98473D4B9847A84794F8FF
S21440148044305BB2B3F1FF3F04BF002384F84430DE
S21440149094F845305BB2B3F1FF3F04BF002384F8B5
S2144014A045302D4B984703A904A8324B984700284F
S2144014B068D1A847A66B284B9847002ECAD120462D
S2144014C0DFF89C80C0471C4F3E5C6836F6B220462C
S2144014D0C04717F800B02046204B9847024659466A
S2144014E03046164B98472046C0473B5C022B05D0FB
S2144014F0134B9847134B98471F4B98472368002B2E
S214401500A1D0039904F124001C4B98472046164B63
S2144015109847164B98470028A1D14FF08053C9F8FA
S2144015200030BFF34F8FBFF36F8F98E7ED2040003A
S214401530A5084000410C4000080000201536400039
S214401540FD27400025284000ED2F40000D23400099
S214401550691F400004ED00E0E9084000092840000B
S214401560192840000D214000690C40008D1B4000AA
S214401570F51940003D20400045304000B91E40006F
S2144015801120400020460F4B98470F4B9847A847DE
S214401590A66B0E4B9847002E7FF461AF20460C4F4B
S2144015A0B8470C4E355C5035EDB22046B847365CF1
S2144015B02046094B9847024631462846074B9847EF
S2144015C00020FAE6690C40008D1B4000E908400008
S2144015D01928400008000020092840001536400021
S2144015E0C06C704790F850007047000070B50446D5
S2144015F00D461646114B984794F844305BB2B3F10B
S214401600FF3F04BF002384F8443094F845305BB273
S214401610B3F1FF3F04BF002384F84530084B98479A
S214401620A36B1BB12046074B984770BD32462946F0
S21440163004F12400044B9847F4E700BFA508400097
S214401640E9084000690C4000F11E4000084B1B684A
S2144016501B683BB1064B1B68DB68DB685A68054B6A
S2144016601A6070474FF0FF32024B1A60704700BF57
S21440167080A4002030A5002070B504460E461D4BC1
S2144016801D681D4B186804301C4B984748B91A4BC8
S2144016901A681B490B68D06A0122824023EA02037B
S2144016A00B60B4F1FF3F13D02C44134B1B685C60B7
S2144016B0A54216D8134B18680F4B19680431124BC5
S2144016C09847124B1B689C423CBF104B1C6070BD39
S2144016D0002EE9D0084B196804310D480D4B984749
S2144016E070BD0D4B1868044B19680431064B98477B
S2144016F070BD00BF78A500207CA40020D90740001C
S21440170000A5002080A40020A507400030A50020AA
S21440171050A500208D07400084A400202DE9F04FFE
S21440172083B083460D460193DDF834A096003046DC
S214401730704B9847002800F0AD80074658206D4B08
S21440174098470446002800F0A28007633246A52149
S2144017503846694B9847043E236B1E4426F00706DE
S2144017602B7884F834302B7863B12B4604F134025E
S21440177005F10901587802F8010F13F8010F08B176
S2144017808B42F7D1002784F83D700C9D042D28BF6E
S2144017900425E562A564E76404F104084046DFF8E2
S2144017A0C491C84704F11800C8472461C5F105052F
S2144017B0A5616462276584F85470019A594630469C
S2144017C04E4B98472060BAF1000F01D0CAF800404F
S2144017D04B4B98474B4A1368013313604A4B1B6880
S2144017E0002B5AD0494B1B683BB9474B1B68DA6AFB
S2144017F0E36A9A429CBF444B1C60454A13680133D7
S214401800136023640320434B984760642046424D50
S214401810A84704F1340201460320404B984720462F
S214401820A84794F82C20014603203D4B9847204675
S214401830A847024603211B203A4B98472046A84714
S214401840394B9847E06A394A1168012383400B4375
S214401850136000EB80004146354B03EB8000354B70
S2144018609847354B9847294B1B68002B3BD0264B57
S2144018701B68DA6AE36A9A4239D24FF080522F4B9D
S2144018801A60BFF34F8FBFF36F8F01202CE03846AE
S2144018902B4B98474FF0FF3026E01B4B1C601368DD
S2144018A0012BAAD1224E3046264DA84706F11400F9
S2144018B0A84706F12800A84706F13C00A84706F1CD
S2144018C05000A847204F3846A847204E3046A847E5
S2144018D01F48A8471F48A8471F48A8471F4B1F60D8
S2144018E01F4B1E6089E7012003B0BDE8F08F012042
S2144018F0FAE700BF85054000B13E40005108400071
S214401900A5084000ECA400207CA400204CA50020A4
S214401910FCA40020853040002528400025324000A9
S214401920392F4000153640008534400000A5002081
S21440193088A400208D074000E908400004ED00E040
S214401940E90640007107400004A5002018A50020C5
S21440195038A5002064A5002050A5002080A40020C3
S21440196084A400208707400010B582B0184B01932E
S21440197000230093822217491748184CA047012895
S21440198004D0B0F1FF3F1AD002B010BD144B9847B8
S2144019900128F6D14FF0A00383F31188BFF36F8F71
S2144019A0BFF34F8F4FF0FF320E4B1A6001220E4BA3
S2144019B01A6000220D4B1A600D4B9847E4E74FF033
S2144019C0A00383F31188BFF36F8FBFF34F8FFEE7FB
S2144019D02CA50020E84040003D1D40001D1740005B
S2144019E0D123400030A500204CA5002078A500203B
S2144019F0C1094000024A136801331360704700BFB4
S214401A00F8A40020014B1868704700BF78A5002056
S214401A102DE9F0474A4B1B68012B02D0494B1B6807
S214401A2033B9494A1368013313600020474B98473F
S214401A30434B1A681B68002B7AD1454B1E6801360B
S214401A401E60C6B9434B1B681B6843B14FF0A003EA
S214401A5083F31188BFF36F8FBFF34F8FFEE73D4A86
S214401A6011683D4B1868106019603C4A1368013392
S214401A7013603B4B98473B4B1B689E4218D2002452
S214401A80394B1B68DB6A03EB8303384A52F8233032
S214401A90022B28BF01242B4B1B680BB9344B9847AD
S214401AA0344B1B68002B0CBF20460120BDE8F08756
S214401AB00024DFF8A080304FDFF8CCA024E04FF0C1
S214401AC0FF32284B1A60DBE7264A1360D8E705F159
S214401AD01800B8472846D047284B9847E86A284A0F
S214401AE01168012383400B43136000EB8000494696
S214401AF01E4B03EB8000234B98471B4B1B68EA6A40
S214401B00DB6A9A4228BF0124D8F800301B68002BB5
S214401B10D5D0D8F80030DB68DD686B689E42D3D3FA
S214401B2005F104094846B847AB6A002BCFD1D1E748
S214401B30044A1368013313600D4B98470024AFE7FF
S214401B40F8A40020F4A4002090A6002015334000FE
S214401B5078A5002080A4002084A4002034A500207E
S214401B604D16400030A500207CA4002088A400200C
S214401B702B3D40007CA50020D9074000853440001E
S214401B8000A500208D07400025284000384B1B68E4
S214401B9043B94FF0A00383F31188BFF36F8FBFF3B1
S214401BA04F8FFEE72DE9F041324B9847304B1A688D
S214401BB0013A1A601B68002B55D12F4B1B682BB976
S214401BC000242E4B98472046BDE8F08100242C4E3A
S214401BD02C4DDFF8DC80336823B3F368DC6804F10F
S214401BE01800A847271D3846A8472046C047264B1A
S214401BF09847E06A254A1168012383400B431360E7
S214401C0000EB80003946224B03EB8000214B98477F
S214401C10214B1B68E26ADB6A9A42DCD301221F4BE7
S214401C201A60D8E70CB11E4B98471E4B1C686CB127
S214401C301D4F1A4E012501E0013C04D0B84700284C
S214401C40FAD03560F8E70022164B1A60134B1B6833
S214401C505BB14FF08052154B1A60BFF34F8FBFF306
S214401C606F8F0124ADE70024ABE70024A9E700BF4F
S214401C70F8A40020A5084000ECA40020E908400095
S214401C8038A50020D90740008534400000A5002034
S214401C9088A400208D0740007CA400207CA500205E
S214401CA04D164000F4A40020111A400004ED00E058
S214401CB02528400070B518B30446164B1B6843B140
S214401CC04FF0A00383F31188BFF36F8FBFF34F8F9E
S214401CD0FEE7114B984721468920104B9847104BFA
S214401CE01868104EB047104DA847104B9847B0475D
S214401CF0A847002120460E4B98470E4B984738B9C8
S214401D004FF080520C4B1A60BFF34F8FBFF36F8F6C
S214401D1070BD00BFF8A40020F519400021384000EF
S214401D207CA400202528400045304000FD27400088
S214401D30791640008D1B400004ED00E080B51A4D3A
S214401D40DFF88880194FDFF888900DE0184B1B6845
S214401D50012B07D94FF08053C9F80030BFF34F8F9F
S214401D60BFF36F8F134B9847134E2B68002BEDD065
S214401D70C0473C68B047002CF7D0104B9847FB68EC
S214401D80DC68201D0E4B98470E4A1368013B1360D3
S214401D902B68013B2B600C4B9847206BDFF834A038
S214401DA0D0472046D047E0E7F0A4002064A50020B6
S214401DB088A40020173D40008D1B4000A508400029
S214401DC0D9074000ECA40020E9084000F51940007F
S214401DD004ED00E0E90640002E4B1B6853BB10B5EF
S214401DE000222D4B1A602D4B1B681B6B1A68B2F1F4
S214401DF0A53F03D15A68B2F1A53F1FD0274B1868BC
S214401E0019683431264B9847264B1B68B3FA83F340
S214401E10DBB2C3F11F0303EB8301234A52F82120B0
S214401E20AAB94FF0A00383F31188BFF36F8FBFF3B7
S214401E304F8FFEE70122184B1A6070479A68B2F13E
S214401E40A53FDBD1DB68B3F1A53FD7D1DCE7164A27
S214401E509900C81802EB80004468646844601944DE
S214401E600246083294420FD003EB83030E4A02EB3D
S214401E7083035B68DA68094B1A600C4B98470C4B37
S214401E8098470C4B984710BD6068074A02EB8102A2
S214401E905060E9E7F8A400207CA500207CA4002040
S214401EA0193D400000A5002088A40020FD274000E2
S214401EB025284000ED38400040B94FF0A00383F39A
S214401EC01188BFF36F8FBFF34F8FFEE710B50C46F8
S214401ED0044B19681831044B984701212046034BA0
S214401EE0984710BD7CA40020A50740007916400006
S214401EF0F8B5F8B10C461546134A11681831134B1D
S214401F009847002D18BF4FF0FF34114B19682144F5
S214401F108820104B98470C4B18680F4FB8470F4E09
S214401F20B0470F4B9847B847B047294620460D4B19
S214401F309847F8BD4FF0A00383F31188BFF36F8F27
S214401F40BFF34F8FFEE700BF7CA400208D07400004
S214401F5078A5002021384000252840004530400024
S214401F60FD2740007916400038B5C368DC68002C71
S214401F702BD004F1180528461B4B98471B4B1B6873
S214401F80002B2BD1251D2846174B98472046184B2B
S214401F909847184B9847E06A174A116801238340D0
S214401FA00B43136000EB80002946144B03EB800084
S214401FB0134B9847134B1B68E26ADB6A9A4283BF0F
S214401FC00120114B1860002038BD4FF0A00383F36A
S214401FD01188BFF36F8FBFF34F8FFEE729460B483C
S214401FE0074B9847E6E700BFD9074000F8A4002013
S214401FF0252840008534400000A5002088A4002005
S2144020008D0740007CA400207CA5002038A5002039
S21440201030B1084A12680260074A12684260704748
S2144020204FF0A00383F31188BFF36F8FBFF34F8F3A
S214402030FEE700BF34A5002078A5002038B5C0B123
S2144020400446F9B10D461B4B98471B4B1A682B6844
S214402050B3F1FF3F2AD0194909682068884202D068
S21440206061688A4224D26168501A834213D8012498
S21440207018E04FF0A00383F31188BFF36F8FBFF3D0
S2144020804F8FFEE74FF0A00383F31188BFF36F8FA7
S214402090BFF34F8FFEE79B1A0B442B602046084B3E
S2144020A098470024074B9847204638BD0024F9E758
S2144020B00124F7E7A508400078A5002034A50020B5
S2144020C011204000E90840000122014B1A60704789
S2144020D07CA5002008B1406C704700207047000087
S2144020E0014B1868704700BF7CA40020054B1B6856
S2144020F033B1054B1B68002B0CBF022000207047F5
S214402100012070474CA50020F8A40020002864D089
S21440211070B50446C36A314A1268D26A93422ED2D8
S2144021208269002A05DB2D4A1268D26AC2F105028E
S214402130826103EB83032A4A02EB830362699A4275
S2144021401ED0264B1B68DB6AE3622046254DA84717
S21440215006462046A84701460320234B9847034699
S214402160324603218E20214EB0472046A8471B4BBF
S2144021701B6893F82C20014603201D4B984770BDE2
S214402180251D28461B4B984770B9E36A03EB83012D
S214402190134A52F821203AB917480268012101FA39
S2144021A003F322EA030303600C4B1B68DB6AE3621B
S2144021B020460C4B9847114B9847E06A0E4A1168E8
S2144021C0012383400B43136000EB80002946044BF9
S2144021D003EB80000A4B9847B7E770477CA4002083
S2144021E088A4002025284000912F40000D3740004D
S2144021F0392F4000D907400000A500208534400014
S2144022008D074000002867D0F8B50446354B1B685C
S214402210984208D04FF0A00383F31188BFF36F8F26
S214402220BFF34F8FFEE7C36C43B94FF0A00383F371
S2144022301188BFF36F8FBFF34F8FFEE7013BC36438
S214402240C16A826C914249D0002B49D1061D304666
S214402250254B984768B9E16A01EB8102234B53F856
S214402260223033B92248036801228A4023EA020317
S214402270036020461F4DA84707462046A84701460C
S21440228003201D4B984703463A4603218F201B4F99
S214402290B8472046A84794F8482001460320184BE4
S2144022A09847A36CE362C3F10503A3612046A847A1
S2144022B0144B9847E06A0E4A1168012404FA00F36A
S2144022C00B43136000EB80003146084B03EB800065
S2144022D00D4B98472046F8BD002070470020F8BDBB
S2144022E00020F8BD7CA40020D907400088A4002028
S2144022F000A5002025284000912F40000D374000C3
S214402300392F4000853440008D074000054B1B6840
S21440231023B1044B1A68D36C0133D364014B18685D
S214402320704700BF7CA4002008B541600061914220
S2144023300CD8D21A83699A4201D3012008BD011DE8
S214402340094B1868094B9847002008BD9A4201D2AD
S214402350994206D2011D064B1868044B9847002048
S21440236008BD012008BD00BF84A50020A507400089
S21440237080A5002070B50D4B98470D4B1B6813B1D8
S2144023800C4B984770BD0C4D28460C4EB0470C4C35
S2144023902046B0470B4B1D600B4B1C6000221021A3
S2144023A005200A4B9847024B1860E9E7A50840000D
S2144023B0B4A50020E908400088A500207107400029
S2144023C09CA5002080A5002084A50020A10D4000EB
S2144023D010B582B00D4B98470D4B1B686BB10D4B3B
S2144023E001930223009300234FF482720A490B485C
S2144023F00B4CA04708B102B010BD4FF0A00383F3CA
S2144024001188BFF36F8FBFF34F8FFEE775234000F1
S214402410B4A50020B8A50020F040400001264000AA
S2144024201D17400000282ED0F0B585B0174604464C
S2144024303D4A1068002866D01A460D46009101971E
S2144024400294052928DC394B984702284FF00003B0
S2144024500CBF0A9A1A46694633480068344EB0475D
S2144024600646002D4CDD042D1CD0052D28D0012E0F
S2144024700CBF0023092305F1B0001844002C3BD0C4
S21440248094F8282039E04FF0A00383F31188BFF377
S2144024906F8FBFF34F8FFEE700236946254EB04748
S2144024A00646DEE7012E0CBFB420BD2034B194F8BA
S2144024B028203B460521204CA04721E00022F8E793
S2144024C0012E01D00923D6E72546F4B194F82820FA
S2144024D00521B520194B9847052194F82800184B3C
S2144024E09847052194F82800164B9847A56AE9B204
S2144024F00520154B984703E0002205210F4B9847CF
S214402500304605B0F0BD0026FAE700220521B5208A
S2144025100A4B984705210020094B98470521002083
S214402520084B9847E3E700BFB4A50020ED204000E5
S214402530790E4000351140000D37400015364000FA
S214402540292E40009D2E4000B93140002DE9F0472D
S21440255082B08046234B98470746234B1B689842D9
S21440256019D30023C8F800301F4B1F60384602B00E
S214402570BDE8F087002100910B46524620461B4C92
S214402580A04750B94FF0A00383F31188BFF36F8F75
S214402590BFF34F8FFEE7164D164E2B681A68C2B132
S2144025A0DB68D3F800A0DC6804F104094846B0476D
S2144025B0636A20469847E369012BEED1A3695344EA
S2144025C09A45D7D263602461494628680A4B9847A3
S2144025D0E3E70A4A10680649086013600123C8F812
S2144025E00030C1E7051A4000B0A500202524400071
S2144025F080A50020D9074000A507400084A50020FC
S2144026002DE9F04788B0704E704FDFF8E891DFF85C
S214402610E88133681A6872B1DB681C686C4B98476F
S21440262004A86C4B98470546049B002B52D1A04209
S21440263023D200220FE0664B984704A8654B984784
S2144026400546049B002B45D1634B1B681A68B2FABB
S21440265082F252090024611B604B1868604B984711
S214402660B84738B94FF08053C9F80030BFF34F8FA2
S214402670BFF36F8F594D5B4C35E0B8473368DB6826
S214402680D3F80CA00AF10400C047DAF81C30012B3E
S21440269004D0DAF8243050469847EBE7DAF81810BA
S2144026A023462A46214450464F4DA8470028F0D09E
S2144026B0002100910B46224650464C4CA04700282D
S2144026C0E7D14FF0A00383F31188BFF36F8FBFF3BA
S2144026D04F8FFEE7B847CDE707990698059B984782
S2144026E0049B002B09DA00231A4604A92868A04751
S2144026F000288ED0049B002BEEDBDDF818A0DAF81D
S214402700143013B10AF10400C04703A8314B984770
S214402710049B092BE7D801A252F823F04527400036
S2144027204527400045274000E726400097274000C1
S214402730BF2740004527400045274000E726400089
S21440274097274000059CDAF8181023460246214495
S2144027505046254CA04700288DD0DAF82430504605
S2144027609847DAF81C30012B85D1DAF8182000217A
S21440277000910B460598024450461C4CA047002842
S2144027807FF479AF4FF0A00383F31188BFF36F8FC8
S214402790BFF34F8FFEE70599CAF8181031B10346CC
S2144027A0024601445046104CA04764E74FF0A00351
S2144027B083F31188BFF36F8FBFF34F8FFEE750460A
S2144027C00B4B984757E700BF80A500208D1B400065
S2144027D0F51940004D25400084A50020B4A50020F2
S2144027E0ED154000BD12400029234000252440003E
S2144027F0E906400004ED00E0D907400008B5014B6B
S214402800984708BDE120400008B5024B9847C0B243
S21440281008BD00BFE115400008B5014B984708BD0C
S214402820E515400008B5024B9847C0B208BD00BF4A
S214402830D5204000284B1B680722DA650A2283F819
S214402840642083F8652083F8662083F86720052295
S21440285083F8682083F8692083F86A200F2283F87B
S2144028606C2083F86D2083F86E2083F86F2083F801
S214402870702083F8712083F87220102283F8742029
S21440288083F8752083F87620132183F8771011207B
S21440289083F8780083F8792083F87A100022A3F82A
S2144028A07C20A022A3F87E204FF4A072A3F88020BC
S2144028B04FF4F072A3F8822040F29E22A3F88420C0
S2144028C040F2F322A3F8862040F24332A3F8882051
S2144028D040F2A2321A667047BCA50020124B002276
S2144028E0DA811A800A221A825A8014225A829A80E0
S2144028F01E229A82DA802822DA821A812D221A83B0
S2144029005A8132225A839A8109229A831322DA8381
S2144029101D221A8427225A842C229A843122DA8451
S21440292036221A85704700BFE0A50020062811D839
S214402930DFE800F00A060812040C0E00074870474D
S214402940074870470748704707487047074870472A
S214402950074870470748704707487047404140005F
S21440296088414000DC41400028424000744240001C
S214402970C042400014434000F840400008B50628D6
S2144029800ED82C4B1B68034493F864308B420CD310
S21440299006284AD8DFE800F02C18220E49353F00BA
S2144029A02548264B9847012008BD2548234B984785
S2144029B0012008BD2131CB1001F0070101208840DD
S2144029C0204AD15C084008BD0B31CB1001F007010E
S2144029D0012088401B4AD15C084008BD1631CB1008
S2144029E001F0070101208840164AD15C084008BD26
S2144029F0CB0801F0070101208840124AD15C08400C
S214402A0008BD2C31CB1001F00701012088400D4A4B
S214402A10D15C084008BD3231CB1001F007010120DF
S214402A208840084AD15C084008BD0748034B984791
S214402A30012008BDBCA5002044434000912A400028
S214402A408843400088A60020C44340008AB130B482
S214402A500B7803700B785BB14B1C11448B4207D04C
S214402A601C4613F8015B00F8015F2478002CF5D172
S214402A7030BC704708B5044B1B6800221A63034BF2
S214402A801B6803B1984708BDBCA5002094A600204B
S214402A9010B504460B4B98470B4B1B6803B110BD53
S214402AA0094B1C60094B18680028F8D05022214674
S214402AB000F5FD60064B9847044B1B680122C3F89F
S214402AC0E027ECE7752A40005CA60020BCA5002065
S214402AD04D2A400008B50A4B1868036B6BB1C369B2
S214402AE0B3F57A7F04D200EB830000F63C0008BDC5
S214402AF00448054B9847002008BD002008BD00BF8D
S214402B00BCA50020D4464000912A40002DE9F04163
S214402B1048B1054628B10024204E2746DFF8888075
S214402B200BE0BDE8F0811E481E4B9847BDE8F0819B
S214402B30012A1ED00134AC422ED03068C3692344EB
S214402B404FEA830E00EB0E0292F83C2802F1670132
S214402B50C9B20E29ECD86832D2B2134481698B428E
S214402B60E8D201320EF63C0E920039467044C04719
S214402B70E0E701338269934207D20EF63C0E00EB43
S214402B800E0340F80E705F60D4E7C0F83C780EF64F
S214402B903C0E40F80E70CDE7BDE8F081BCA50020A5
S214402BA0F4434000912A4000B13E400008B50A4B2D
S214402BB01B681A6B7AB15A6901325A61DA69013276
S214402BC0DA61B2F57A7F03D301221A620022DA6113
S214402BD00120024B984708BDBCA500200D2B4000A5
S214402BE02DE9F04F87B00291002832D08246411C32
S214402BF003785BB3012700221A44013711F8013BE2
S214402C00002BF9D1FBB218460593EFF310830193DE
S214402C10012383F3108849490B6801330B6002F0A7
S214402C203F031A460493C8B1454B1E6806EB420361
S214402C30B3F85C370393002B47D0029A4FEA122929
S214402C40039C5FFA82F85FFA87FB21E001270022A7
S214402C50D8E73C483C4B984700240CE03B483A4C6D
S214402C60A0473B48A0470024344A1368013B136002
S214402C70019B83F31088204607B0BDE8F08F731998
S214402C8093F83D2493F83C4404EB0224A4B2E4B108
S214402C902546331993F83E344345F0D1331993F81B
S214402CA03F344B45EBD1201D33185B4493F83C34FE
S214402CB0002BE4D104F588605A4651463044254BF3
S214402CC098470028DBD1002CCED1D6F83834FFB256
S214402CD01A1D3A44B2F5487F2AD2F218039982F870
S214402CE03C14090A82F83D14029982F83E14090AF7
S214402CF082F83F1403F588633A465146F018164B5F
S214402D0098470F4B1A68D2F838341F44D119002020
S214402D1081F84004049902EB4101A1F85C377B1D21
S214402D20C2F83834059C0534E4B21B1B9CB29BE7C2
S214402D300A48054B9847002496E700BF54A6002053
S214402D40BCA50020FC464000912A40002C4740008D
S214402D50644740004D3F40004D2A40009C4740009D
S214402D6038B504460D46FF2803D04FF6FF73984209
S214402D7003D1AC4205D3284638BD0948094B98478D
S214402D80F9E7094B984748B10123037025EA040345
S214402D90190A41701B0C4380044B98472540EAE7CC
S214402DA0B4454000912A4000D52A4000AD2B400053
S214402DB008B5062913D8B8B10E4B1B685A1892F8B6
S214402DC06420824210D35A1892F87420013803EBDC
S214402DD04101B1F87C3002FB003080B208BD0648A5
S214402DE0064B9847002008BD0548044B98470020EE
S214402DF008BD00BFBCA50020BC4E4000912A400044
S214402E00FC4E400008B50B4601461846044B984712
S214402E10044B1B681844012380F88C3008BD00BF63
S214402E20B12D4000BCA5002070B506290BD806463B
S214402E300C46124B1D686B1893F86430834206D3D9
S214402E402B6B43B970BD0E480E4B984770BD0E486D
S214402E500C4B984770BD0D4B98478C30002128444A
S214402E600B4B984705460B4B98470028EAD008344A
S214402E70047046704580084B9847E3E7BCA50020A1
S214402E80744C4000912A4000C84C4000B12D400090
S214402E90E12B4000D52A4000AD2B400070B50629F6
S214402EA00BD805460C461D4B1B685A1892F86420F2
S214402EB0824206D31B6B43B970BD1948194B9847DD
S214402EC070BD1948174B984770BD184B9847064633
S214402ED00028F1D0032C12D021462846144B9847A0
S214402EE00E4B1B681A1992F86C201844104490F840
S214402EF08C307370103434700E4B9847DCE70321E7
S214402F0028460B4B9847054B1B6893F86F200344A5
S214402F10134493F88D307370ECE700BFBCA50020D7
S214402F20144D4000912A40006C4D4000D52A400088
S214402F30B12D4000AD2B400038B50446062815D8C4
S214402F40084615460D4B1B68234493F864308B4265
S214402F5010D321460A4B9847084B1B681C4494F8EC
S214402F606C201844104480F88D5038BD0548064BF8
S214402F70984738BD0548044B984738BDBCA5002047
S214402F80B12D4000F8484000912A40004449400096
S214402F9010B50446062814D808460F4B1B68234431
S214402FA093F864308B4211D321460C4B98470A4B1A
S214402FB01B681C4494F86C201844104490F88D000C
S214402FC010BD0748074B9847002010BD0648054BE4
S214402FD09847002010BD00BFBCA50020B12D400082
S214402FE0F0454000912A40003C46400038B5044633
S214402FF0062815D8084615460D4B1B68234493F8FB
S21440300064308B4210D321460A4B9847084B1B68C6
S2144030101C4494F86C201844104480F88C5038BDFA
S2144030200548064B984738BD0548044B984738BD79
S214403030BCA50020B12D400078484000912A4000B1
S214403040BC48400008B50B4B1B6893F8673083427A
S2144030500CD30321084B9847064B1B6893F86F2008
S21440306018441044002380F88C3008BD0348044BB5
S214403070984708BDBCA50020B12D400084494000BB
S214403080912A400010B5062833D8464A32F8103008
S2144030901A4492F8382042B94249CC185A1C01EBDF
S2144030A04001897B521A84F838203E4A02EB40029F
S2144030B0928B9A4223D33B4AD11891F83810013369
S2144030C09BB222F8103002EB4004E4891B1B02EB53
S2144030D04002528D934204DD324A02EB4002DBB29C
S2144030E05385062809D8DFE800F0101C2936084327
S2144030F050002D482D4B98470021084610BD2C4BBC
S21440310098472A4B98470021F7E7CB08294C01F00F
S2144031100700012202FA00F0E25C22EA0002E254D2
S214403120EBE701F10B03D810224C03F00703012212
S2144031309A40235C23EA02032354DEE701F1160398
S214403140D8101C4C03F0070301229A40235C23EA64
S21440315002032354D1E701F12103D810154C03F0A4
S214403160070301229A40235C23EA02032354C4E760
S21440317001F12C03D8100F4C03F0070301229A40AC
S214403180235C23EA02032354B7E701F13203D81045
S214403190084C03F0070301229A40235C23EA02030B
S2144031A02354AAE7E0A500206C454000912A400041
S2144031B02D29400088A6002010B5062819D8E1B170
S2144031C0124B1B68034493F864308B4215D3104A65
S2144031D032F810305C1E02EB4002D289944210DB7B
S2144031E0013B9BB20A4A22F81030134483F8381049
S2144031F010BD0848084B984710BD0848064B9847EE
S21440320010BD0748044B984710BD00BFBCA5002022
S214403210E0A500204C444000912A400094444000E1
S214403220D844400038B59AB1044608461546062CA0
S21440323012D8A9B1154B1B68234493F864308B42CF
S21440324012D32146124B9847124B1B6893B138BD98
S2144032501148124B984738BD1148104B984738BD17
S21440326010480E4B984738BD20460F4B98470B4B9F
S214403270984738BD054B1B681C448C3094F86C202E
S21440328029461844094B9847E1E700BFBCA50020F3
S214403290B12D40005CA60020E4474000912A400043
S2144032A018484000484840002D2940004D2A40001C
S2144032B008B5114A114B1A6003F54E434C331A6851
S2144032C042F080721A601B686BB10D4B1B6813F09E
S2144032D0007F0CD100220B4B1A60094A136843F05A
S2144032E00103136008BD0848084B984708BD0848C6
S2144032F0064B984708BD00BF55CEACC5B01F00E092
S214403300001000E0041000E07C464000912A400097
S214403310A8464000104B1B68012B16D010B40F4B2C
S21440332019680F4A13680B440E4C24681B1B03F0A5
S214403330030414600C4C226802EB9303236000B134
S2144033400360084B196010BC70470028FCD0064B41
S2144033501B680360704700BF60A60020041000E0B2
S214403360D4A50020D0A50020D8A5002030B583B035
S214403370044600230193FF2803D04FF6FF7398427C
S2144033802ED1344B1B685A6A2AB9334A1268002A2F
S2144033902BD092085A6201A8304B9847019A304B7E
S2144033A01868151A1A602B4B1B68596A00292BD0CF
S2144033B08D4225D9B5FBF1F2D86A1044D86201FB9C
S2144033C012519A6A11449962224B1B689A6A596A4A
S2144033D08A421AD3D86A0130D862521A9A6214E0E6
S2144033E02048214B9847002013E0204A1168204A85
S2144033F012689142CFD01F4A126892085A62CAE7B2
S2144034009A6A2A449A62DFE79A62A54203D804EA97
S214403410050003B030BD184B98470028F7D04FF64C
S214403420FF72944207D0FF2C0CD014480E4B98479E
S214403430134B9847EBE7A92202702A0C42800022E1
S2144034404270F5E7A82202702A0A42802A0E42708D
S214403450EEE700BFBCA5002058A60020153340006C
S21440346050A6002008454000912A4000041000E085
S21440347084BE002000000020D52A40004845400079
S214403480AD2B4000002841D070B50446204A126853
S2144034901AB30A2822D81F4B1B681BBBEFF31085B4
S2144034A0012383F310881B4A1368013313601A4BB9
S2144034B01B681B6B5BB100F12103DA1017498A5C6D
S2144034C003F0070342FA03F313F0010F0ED0114A3C
S2144034D01368013B136085F3108870BD1048114B8C
S2144034E0984770BD10480F4B984770BD4FF6FF7019
S2144034F00E4B984706460E4B98470028E7D00222C8
S2144035000270468044700B4B9847E0E7704700BF18
S2144035101000002054A60020BCA5002088A600204D
S214403520C04D4000912A4000004E40006D334000A0
S214403530D52A4000AD2B40002DE9F8432C4B1B68A4
S214403540002B52D082EAE276A6EBE276EFF31085C5
S214403550012383F31088274B1C6801341C60264CDB
S214403560236813442360224B1B681B6B002B36D00A
S214403570224B93F900301BB9214B1B78002B2ED1E0
S21440358088460746FF201F4B9847814631464FF6F0
S214403590FF701D4B984706461C4B98470446F0B1B3
S2144035A080F80190002303704680194B98474146A7
S2144035B04FF6FF70144B98470646144B9847034601
S2144035C068B1468000224270F8B2421C1A702070E1
S2144035D00F4B9847064B1B68074A12681A65054A00
S2144035E01368013B136085F31088BDE8F88300BF7D
S2144035F0BCA5002054A60020C4A50020DCA50020C1
S214403600C8A500206D334000612D4000D52A4000FB
S214403610AD2B4000F8B50446FE2839D808460629A2
S2144036203AD82B4B1B680B4493F86430934237D3FD
S214403630284B1B68002B37D1274B1B783BB3EFF347
S2144036401085012383F3108822490B6801330B60F1
S2144036501F4B1B681B6BA3B1204B93F9003013B96B
S2144036601F4B1B786BB9D6B231461E4B984740B9B4
S214403670E3081D4AD35C04F00702134113F0010F20
S21440368016D0144A1368013B136085F31088F8BDC2
S2144036901648174B9847F8BD1648154B9847F8BD3F
S2144036A01548134B9847F8BD1448114B9847F8BD3A
S2144036B04FF6FF70124B98470746124B9847002824
S2144036C0DFD04780047046700F4B9847D9E700BF5D
S2144036D0BCA5002054A60020C0A50020DCA50020E4
S2144036E0C8A500207D29400064A60020CC494000A3
S2144036F0912A4000044A40004C4A4000944A400008
S2144037006D334000D52A4000AD2B40002DE9F041F6
S2144037100446FE283BD808461D4606293CD8304B72
S2144037201B680B4493F8643093423AD32D4B1B6886
S214403730002B3BD1EFF31086012383F310882949F1
S2144037400B6801330B60264B1B681B6BBBB1264BCB
S2144037501B78A3B1254B1B781BB1254B93F9003042
S2144037606BB1D7B23946234B984740B9E308224A53
S214403770D35C04F00702134113F0010F1BD0194A23
S2144037801368013B136086F31088BDE8F0811B4840
S2144037901B4B9847BDE8F0811A48194B9847BDE83F
S2144037A0F0811948164B9847BDE8F0811748144BEE
S2144037B09847BDE8F081FF20154B9847804629463C
S2144037C0FF20144B98470546134B98470028D6D001
S2144037D080F80380047047708570104B9847CEE79A
S2144037E0BCA5002054A60020C0A50020C8A50020E7
S2144037F0DCA500207D29400064A600205C4B4000EC
S214403800912A40009C4B4000EC4B40003C4C400012
S2144038106D334000612D4000D52A4000AD2B40005E
S214403820F8B5FE282BD804460E46234B1B6853BBE0
S214403830EFF31085012383F310881F4A1368013382
S21440384013601E4B1B681B6B93B11D4B1B787BB1E3
S2144038501C4B1B781BB11C4B93F9003043B1E3085B
S2144038601A4AD35C04F00702134113F0010F0ED03E
S214403870114A1368013B136085F31088F8BD14485D
S214403880144B9847F8BD1448124B9847F8BDFF2094
S214403890124B9847074631464FF6FF70104B9847F5
S2144038A00646104B98470028E2D047700470468082
S2144038B00D4B9847DCE700BF54A60020BCA500206F
S2144038C0C0A50020C8A50020DCA5002064A60020D6
S2144038D0CC4A4000912A4000244B40006D334000C3
S2144038E0612D4000D52A4000AD2B4000F8B50A288F
S2144038F04BD8044600F12103DA1031498A5C03F0C4
S214403900070342FA03F313F0010F14BF0123002309
S2144039102C4A1370EFF31085012282F310882A494F
S2144039200A6801320A60294A1278824240D0284A00
S2144039301268126B002A3BD0002B39D10022254B4F
S2144039401A604FF6FF70244B984707461F4B1C7073
S214403950224B9847064600282AD01C4B18781C4B0A
S2144039601B6893F86730834213D303211C4B984758
S214403970174B1B6893F86F201844104490F88C300F
S214403980012B09D10723337008E01648164B984799
S214403990F8BD1648144B98470623337077807470EA
S2144039A001220A4B19780320114B9847114B984730
S2144039B0054A1368013B136085F31088F8BD00BFC5
S2144039C088A60020C8A5002054A60020C0A5002038
S2144039D0BCA50020CCA500206D334000D52A400071
S2144039E0B12D4000384E4000912A4000804E4000A5
S2144039F0ED2F4000AD2B400038B51E4B1B684BB139
S214403A00186B012805D01C4B1B6843B1194B1B682B
S214403A10186B38BD19481A4B9847002038BDEFF34D
S214403A201084012282F3108816490B6813440B60F9
S214403A30104B1B681A63144B9847144B984705461F
S214403A4048B12846124B98470E4A1368013B13600C
S214403A5084F31088DAE703200E4B984705460E4A53
S214403A60014603200D4B98470022294603200C4B65
S214403A709847E6E7BCA500205CA600203C4F4000E7
S214403A80912A400054A60020FD27400025284000EB
S214403A90ED38400085304000884F400025324000D9
S214403AA0392F40002DE9F84F05465B4B1B68002B2D
S214403AB000F0A1801B78DBB2012B00F09580574BBD
S214403AC01A68574B1A60544C41F2EC763246002145
S214403AD02068544B9847236841F6A1229A810522D4
S214403AE09A730022DA731E614FF47A7199614FF02F
S214403AF0F03159659A655A634B4B984720684FF0AA
S214403B00F133C0F830344FF44873C0F834340123EE
S214403B10C0F838344FF0F233C0F8E4375022434907
S214403B2000F5FD60424B984723684FF0F332C3F8E8
S214403B30382803F5BF520A2111700B2141F2E17279
S214403B4099540C2141F2E27299540D2141F2E372EC
S214403B50995441F2E4724FF07101995441F2E57282
S214403B604FF072019954732641F2E6729E547427C0
S214403B7041F2E7729F544FF0F10841F2E87203F8C1
S214403B8002804FF0F20941F2E97203F802904FF0DA
S214403B90F30A41F2EA7203F802A04FF0F40B41F246
S214403BA0EB7203F802B0234B9847236883F80BB0B8
S214403BB083F80AA083F8099083F80880DF719E7125
S214403BC04FF072025A714FF071021A710422DA7085
S214403BD0236803229A70236802225A7023684FF0A3
S214403BE001021A70144B9847012D08D0022D0AD0B6
S214403BF075B9BDE8F88F114A074B1A605FE7104B5E
S214403C009847BDE8F88F0F480F4B9847BDE8F88FA8
S214403C100E480D4B9847ECE7BCA50020041000E08A
S214403C2084BE0020B13E400035284000944F4000FE
S214403C304D2A4000DD284000B132400098A60020C2
S214403C40F9394000A84F4000912A4000E84F400014
S214403C5080B5074D4FF4805637466F634FF4FA7081
S214403C60044CA0472E634FF4FA70A047F5E700BF18
S214403C7000120E40B51C400008B54FF47A75024C51
S214403C802846A047FCE700BFB51C400070B582B090
S214403C90124B9847124AD36823F4E0631B041B0C6C
S214403CA043F0BF6343F40033D3600E4B9847012084
S214403CB00D4B984700240194012600962346F02297
S214403CC00A490B480B4DA847019400962346F0221C
S214403CD009490A48A8470A4B9847FEE75D01400055
S214403CE000ED00E039014000A53A40001C5040007D
S214403CF0513C40001D17400024504000793C400095
S214403D00691940004FF0A00383F31188BFF36F8F0B
S214403D10BFF34F8FFEE770474FF0A00383F3118841
S214403D20BFF36F8FBFF34F8FFEE7704770B50F4EF0
S214403D300F4D761BB61018BF002405D0013455F839
S214403D40043B9847A642F9D10A4E0B4D761B01F02C
S214403D506FF9B61018BF002406D0013455F8043B5E
S214403D609847A642F9D170BD70BD00BF3C50400098
S214403D703C504000445040003C504000844641EA9D
S214403D80000313F003036DD1403A41D351F8043B8E
S214403D9040F8043B51F8043B40F8043B51F8043BE0
S214403DA040F8043B51F8043B40F8043B51F8043BD0
S214403DB040F8043B51F8043B40F8043B51F8043BC0
S214403DC040F8043B51F8043B40F8043B51F8043BB0
S214403DD040F8043B51F8043B40F8043B51F8043BA0
S214403DE040F8043B51F8043B40F8043B51F8043B90
S214403DF040F8043B51F8043B40F8043B51F8043B80
S214403E0040F8043B51F8043B40F8043B403ABDD2EE
S214403E10303211D351F8043B40F8043B51F8043B90
S214403E2040F8043B51F8043B40F8043B51F8043B4F
S214403E3040F8043B103AEDD20C3205D351F8043B1F
S214403E4040F8043B043AF9D2043208D0D2071CBFEB
S214403E5011F8013B00F8013B01D30B880380604614
S214403E60704700BF082A13D38B078DD010F003038A
S214403E708AD0C3F10403D21ADB071CBF11F8013BFA
S214403E8000F8013B80D331F8023B20F8023B7BE749
S214403E90043AD9D3013A11F8013B00F8013BF9D274
S214403EA00B7803704B7843708B788370604670470E
S214403EB070B4860746D0541E002A41D0CAB2034684
S214403EC002E014F1FF343BD303F8012B9D07F8D1F1
S214403ED0032C2ED9CDB245EA05250F2C45EA0545DB
S214403EE019D903F110022646103E0F2E42F8105CF8
S214403EF042F80C5C42F8085C42F8045C02F110029E
S214403F00F2D8A4F1100222F00F0204F00F0410328F
S214403F10032C13440DD91E462246043A032A46F87B
S214403F20045BFAD8221F22F003020432134404F042
S214403F3003042CB1C9B21C4403F8011B9C42FBD1BC
S214403F4070BC704714460346C2E700BF002A41D003
S214403F5040EA010313F00303F0B425D1032A23D922
S214403F6004680D68AC421FD1043A38D0A4F101353C
S214403F7025EA040414F0803F2ED1043004310FE0CB
S214403F8050F8043B0E68A3F10134B34224EA03041C
S214403F9001F1040126D1043A21D014F0803F1BD110
S214403FA0032A07460D46EBD805780C78AC4202F15A
S214403FB0FF331AD183B114B90EE06BB17AB110F861
S214403FC0012F11F8014FA24203F1FF33F5D0101B29
S214403FD0F0BC7047104670470020F0BC7047104653
S214403FE0F0BC704729463846DEE72A46EFE700BF72
S214403FF0024B13B1024800F005B8704700000000BD
S21440400011404000002301461A46184600F01AB8F0
S21440401038B50A4C0A4D641BA4100AD004F18043FC
S214404020013B05EB8305013C55F804399847002CC5
S214404030F9D1BDE8384001F005B800BF5450400003
S214404040505040002DE9F047254C2568D5F84841AA
S2144040500646884692469946C4B360681F2817DCD1
S214404060431C76B104EB80050122C5F888A0D4F83D
S214404070881182401143022EC4F88811C5F8089171
S2144040801ED00230636044F820800020BDE8F087F0
S214404090144B03B34FF4C870AFF300800446D0B15E
S2144040A0D5F84831002780E88800C5F848413846AA
S2144040B00123C4F88871C4F88C71002EE1D0D1E792
S2144040C0D4F88C110A43C4F88C21DAE705F5A674B7
S2144040D0C5F84841C1E74FF0FF30BDE8F08700BF64
S2144040E02C5040000000000049444C4500000000B1
S2144040F0546D7220537663004E6F7420656E6F75F4
S2144041006768205441534B2068616E646C65732029
S2144041102D20696E637265617365205452435F4318
S21440412046475F4E5441534B20696E20747263532A
S2144041306E617073686F74436F6E6669672E680051
S2144041404E6F7420656E6F756768204953522068BD
S214404150616E646C6573202D20696E637265617351
S21440416065205452435F4346475F4E495352206949
S2144041706E20747263536E617073686F74436F6EB3
S2144041806669672E680000004E6F7420656E6F7516
S21440419067682053454D4150484F52452068616EF0
S2144041A0646C6573202D20696E637265617365204B
S2144041B05452435F4346475F4E53454D4150484FE8
S2144041C0524520696E20747263536E617073686FD7
S2144041D074436F6E6669672E680000004E6F7420E9
S2144041E0656E6F756768204D555445582068616EFA
S2144041F0646C6573202D20696E63726561736520FB
S2144042005452435F4346475F4E4D55544558206988
S2144042106E20747263536E617073686F74436F6E12
S2144042206669672E680000004E6F7420656E6F7575
S21440423067682051554555452068616E646C6573C6
S214404240202D20696E637265617365205452435F0A
S2144042504346475F4E515545554520696E2074721A
S21440426063536E617073686F74436F6E6669672ED2
S214404270680000004E6F7420656E6F756768205446
S214404280494D45522068616E646C6573202D2069E7
S2144042906E637265617365205452435F4346475F61
S2144042A04E54494D455220696E20747263536E6178
S2144042B07073686F74436F6E6669672E680000009F
S2144042C04E6F7420656E6F756768204556454E5430
S2144042D047524F55502068616E646C6573202D20A0
S2144042E0696E637265617365205452435F43464707
S2144042F05F4E4556454E5447524F555020696E20A6
S214404300747263536E617073686F74436F6E6669E0
S214404310672E680070737A547261636547657445AA
S21440432072726F7248616E646C65733A20496E763D
S214404330616C6964206F626A656374636C617373F1
S2144043402100000054524143455F41535345525467
S2144043503A2070727649734F626A65637445786333
S2144043606C756465643A206F626A656374636C61F9
S2144043707373203E3D2054524143455F4E434C416B
S214404380535345530000000054524143455F415348
S214404390534552543A2070727649734F626A656349
S2144043A0744578636C756465643A20496E76616CD2
S2144043B069642076616C756520666F722068616EF0
S2144043C0646C6500496E76616C6964206F626A65EC
S2144043D0637420636C61737320494420696E207057
S2144043E0727649734F626A6563744578636C756428
S2144043F06564210054524143455F415353455254EE
S2144044003A20707276436865636B44617461546F9A
S21440441042654F7665727772697474656E466F72E0
S2144044204D756C7469456E7472794576656E7473B5
S2144044303A206E6F66456E7472696573546F436852
S21440444065636B203D3D20300000000054524143E0
S214404450455F4153534552543A20707276547261C8
S2144044606365467265654F626A65637448616E64EB
S2144044706C653A20496E76616C69642076616C752D
S2144044806520666F72206F626A656374636C6173E1
S2144044907300000054524143455F415353455254C4
S2144044A03A207072765472616365467265654F62F3
S2144044B06A65637448616E646C653A20496E7661DD
S2144044C06C69642076616C756520666F72206861E1
S2144044D06E646C6500000000417474656D707420F5
S2144044E0746F2066726565206D6F72652068616EB8
S2144044F0646C6573207468616E20616C6C6F636178
S214404500746564210000000054524143455F4153A6
S214404510534552543A2070727654726163654765CB
S214404520744454533A20496E76616C6964207661CF
S2144045306C756520666F7220706172616D5F6D612B
S21440454078445453000000004261642070617261F8
S2144045506D5F6D617844545320696E207072765456
S2144045607261636547657444545300005452414336
S214404570455F4153534552543A20707276547261A7
S21440458063654765744F626A65637448616E646CC0
S214404590653A20496E76616C69642076616C756513
S2144045A020666F72206F626A656374636C617373B2
S2144045B00000000054524143455F41535345525416
S2144045C03A207072765472616365476574506172C2
S2144045D0616D3A20496E76616C69642076616C75CF
S2144045E06520666F7220706172616D5F6D617800E4
S2144045F054524143455F4153534552543A2070729A
S2144046007654726163654765745072696F726974F7
S2144046107950726F70657274793A206F626A65631A
S21440462074636C617373203E3D2054524143455F32
S2144046304E434C41535345530000000054524143AF
S214404640455F4153534552543A20707276547261D6
S21440465063654765745072696F7269747950726F9A
S21440466070657274793A20496E76616C696420761A
S214404670616C756520666F722069640044575420EB
S214404680756E6974206E6F7420617661696C6162C4
S2144046906C652C2073656520636F646520636F6D61
S2144046A06D656E742E0000004457545F4359434373
S2144046B04E54206E6F7420617661696C61626C65E1
S2144046C02C2073656520636F646520636F6D6D6530
S2144046D06E742E00417474656D707420746F20691A
S2144046E06E646578206F7574736964652065766559
S2144046F06E742062756666657221000054524143AE
S214404700455F4153534552543A2070727654726115
S21440471063654F70656E53796D626F6C3A206E615B
S2144047206D65203D3D204E554C4C00005452414353
S214404730455F4153534552543A20707276547261E5
S21440474063654C6F6F6B757053796D626F6C5461B7
S214404750626C65456E7472793A206C656E203D3D9C
S2144047602030000054524143455F41535345525414
S2144047703A207072765472616365437265617465FF
S21440478053796D626F6C5461626C65456E74727974
S2144047903A206C656E203D3D2030000053796D62B6
S2144047A06F6C207461626C652066756C6C2E204957
S2144047B06E637265617365205452435F4346475F3C
S2144047C053594D424F4C5F5441424C455F53495AB2
S2144047D04520696E20747263436F6E6669672E6803
S2144047E00000000054524143455F415353455254E4
S2144047F03A2070727654726163655365744F626A8C
S2144048006563744E616D653A206E616D65203D3D11
S214404810204E554C4C000000496C6C6567616C201E
S2144048206F626A65637420636C61737320696E207F
S21440483070727654726163655365744F626A6563DD
S214404840744E616D65000000496C6C6567616C2054
S21440485068616E646C652028302920696E2070720D
S2144048607654726163655365744F626A6563744ECD
S214404870616D652E0000000054524143455F415330
S214404880534552543A20707276547261636553654C
S214404890744F626A65637453746174653A206F62DC
S2144048A06A656374636C617373203E3D2054524165
S2144048B043455F4E434C4153534553005452414346
S2144048C0455F4153534552543A2070727654726154
S2144048D063655365744F626A656374537461746547
S2144048E03A20496E76616C69642076616C75652005
S2144048F0666F72206964000054524143455F4153DD
S214404900534552543A2070727654726163655365CB
S214404910745072696F7269747950726F7065727490
S214404920793A206F626A656374636C617373203E84
S2144049303D2054524143455F4E434C4153534553AB
S2144049400000000054524143455F41535345525482
S2144049503A2070727654726163655365745072691A
S2144049606F7269747950726F70657274793A2049C3
S2144049706E76616C69642076616C756520666F72D0
S2144049802069640054524143455F41535345525455
S2144049903A207072765472616365536574546173DD
S2144049A06B496E7374616E636546696E697368655C
S2144049B0643A20496E76616C69642076616C7565F0
S2144049C020666F722068616E646C65005452414385
S2144049D0455F4153534552543A2070727654726143
S2144049E0636553746F72654B65726E656C43616C3C
S2144049F06C3A2065636F6465203E3D2030784646BD
S214404A000000000054524143455F415353455254C1
S214404A103A20707276547261636553746F72654B58
S214404A2065726E656C43616C6C3A206F626A656352
S214404A3074436C617373203E3D2054524143455F3E
S214404A404E434C415353455300000000545241439B
S214404A50455F4153534552543A20707276547261C2
S214404A60636553746F72654B65726E656C43616CBB
S214404A706C3A20496E76616C69642076616C756527
S214404A8020666F72206F626A6563744E756D6265EC
S214404A90720000005265636F7264657220627573BF
S214404AA079202D2068696768207072696F72697412
S214404AB07920495352207573696E67207379736302
S214404AC0616C6C3F2028322900000000545241435C
S214404AD0455F4153534552543A2070727654726142
S214404AE0636553746F72654B65726E656C43616C3B
S214404AF06C576974684E756D657269635061726112
S214404B006D4F6E6C793A20496E76616C696420769A
S214404B10616C756520666F7220657674636F646538
S214404B20000000005265636F7264657220627573A0
S214404B3079202D2068696768207072696F72697481
S214404B407920495352207573696E67207379736371
S214404B50616C6C3F202834290000000054524143C9
S214404B60455F4153534552543A20707276547261B1
S214404B70636553746F72654B65726E656C43616CAA
S214404B806C57697468506172616D3A2065767463DB
S214404B906F6465203E3D203078464600545241437F
S214404BA0455F4153534552543A2070727654726171
S214404BB0636553746F72654B65726E656C43616C6A
S214404BC06C57697468506172616D3A206F626A65AD
S214404BD06374436C617373203E3D20545241434599
S214404BE05F4E434C4153534553000000545241439B
S214404BF0455F4153534552543A2070727654726121
S214404C00636553746F72654B65726E656C43616C19
S214404C106C57697468506172616D3A20496E76616E
S214404C206C69642076616C756520666F72206F6271
S214404C306A6563744E756D62657200005265636F97
S214404C40726465722062757379202D206869676882
S214404C50207072696F726974792049535220757357
S214404C60696E672073797363616C6C3F20283329C3
S214404C700000000054524143455F4153534552544F
S214404C803A20707276547261636553746F72654FE2
S214404C90626A6563744E616D654F6E436C6F736593
S214404CA04576656E743A206F626A656374636C61BC
S214404CB07373203E3D2054524143455F4E434C4122
S214404CC0535345530000000054524143455F4153FF
S214404CD0534552543A2070727654726163655374E9
S214404CE06F72654F626A6563744E616D654F6E4361
S214404CF06C6F73654576656E743A20496E76616C66
S214404D0069642076616C756520666F722068616E96
S214404D10646C650054524143455F41535345525479
S214404D203A20707276547261636553746F72654F41
S214404D30626A65637450726F706572746965734FAA
S214404D406E436C6F73654576656E743A206F626A23
S214404D50656374636C617373203E3D2054524143D7
S214404D60455F4E434C4153534553000054524143D4
S214404D70455F4153534552543A207072765472619F
S214404D80636553746F72654F626A65637450726F81
S214404D90706572746965734F6E436C6F7365457664
S214404DA0656E743A20496E76616C69642076616CF3
S214404DB0756520666F722068616E646C65000000E1
S214404DC054524143455F4153534552543A207072C2
S214404DD076547261636553746F72655461736B5237
S214404DE0656164793A20496E76616C6964207661C3
S214404DF06C756520666F722068616E646C65000035
S214404E005265636F726465722062757379202D20D7
S214404E1068696768207072696F726974792049534F
S214404E2052207573696E672073797363616C6C3F4B
S214404E30202831290000000054524143455F415329
S214404E40534552543A207072765472616365537477
S214404E506F72655461736B7377697463683A2049FF
S214404E606E76616C69642076616C756520666F72DB
S214404E70207461736B5F68616E646C65000000004F
S214404E8054524143455F4153534552543A20707201
S214404E907654726163654765744F626A656374539E
S214404EA0746174653A20496E76616C6964207661F7
S214404EB06C756520666F72206964000054524143E9
S214404EC0455F4153534552543A207569496E64656F
S214404ED0784F664F626A6563743A20496E76616CB5
S214404EE069642076616C756520666F72206F626AB1
S214404EF0656374636C6173730000000054524143F1
S214404F00455F4153534552543A207569496E64652E
S214404F10784F664F626A6563743A20496E76616C74
S214404F2069642076616C756520666F72206F626A70
S214404F3065637468616E646C650000005265636FFB
S214404F407264657244617461507472206973204E55
S214404F50554C4C2E2043616C6C20765472616365D0
S214404F60496E69745472616365446174612829208E
S214404F706265666F7265207374617274696E6720CD
S214404F8074726163652E0000287374617274757064
S214404F90290000005472616365205265636F726435
S214404FA065722044656D6F00765472616365456E28
S214404FB061626C65285452435F53544152545F417A
S214404FC0574149545F484F535429206E6F742061AF
S214404FD06C6C6F77656420696E20536E6170736881
S214404FE06F74206D6F646500556E65787065637488
S214404FF0656420617267756D656E7420746F207687
S2144050005472616365456E61626C652028736E619B
S2144050107073686F74206D6F646529005461736B9C
S214405020310000005461736B32000000180000200D
S214405030F8B500BFF8BC08BC9E467047F13F40003C
S214405040F1004000F8B500BFF8BC08BC9E4670476B
S208405050CD0040000A
S21440505400093D00AAAAAAAA000201010200000013
S21440506401000000000000000000000004030020CF
S2144050746C030020D4030020000000000000000061
S21440508400000000000000000000000000000000D7
S21440509400000000000000000000000000000000C7
S2144050A400000000000000000000000000000000B7
S2144050B400000000000000000000000000000000A7
S2144050C40000000000000000000000000000000097
S2144050D40000000000000000000000000000000087
S2144050E40000000000000000000000000000000077
S2144050F40000000000000000000000000000000067
S2144051040000000000000000000000000000000056
S21440511401000000000000000E33CDAB34126DE6F3
S214405124ECDE05000B00000000000000000000005C
S2144051340000000000000000000000000000000026
S2144051440000000000000000000000000000000016
S2144051540000000000000000000000000000000006
S21440516400000000000000000000000000000000F6
S804400301B7
